S01400005744545F41546D65676133322E737265632E
S11300000C942A000C9434000C9434000C943400A6
S11300100C9434000C9434000C9434000C9434008C
S11300200C9434000C9434000C9434000C9434007C
S11300300C9434000C9434000C9434000C9434006C
S11300400C9434000C9434000C9434000C9434005C
S11300500C94340011241FBECFE5D8E0DEBFCDBF21
S11300600E9439000C9451000C9400008FE081BD73
S1130070089581B3806481BB82B38F7B82BB0E946D
S1130080360082B3806482BB2FE38DE093E021507D
S113009080409040E1F700C0000082B38F7B82BBB8
S10900A0FFCFF894FFCF2E
S9030000FC
