:100000000C942A000C943C000C943C000C943C0092
:100010000C943C000C943C000C943C000C943C0070
:100020000C943C000C943C000C943C000C943C0060
:100030000C943C000C943C000C943C000C943C0050
:100040000C943C000C943C000C943C000C943C0040
:100050000C943C0011241FBECFE5D8E0DEBFCDBF1D
:1000600020E0A0E6B0E001C01D92A036B207E1F7A3
:100070000E9443000C9457000C94000012BE8CBFE9
:100080008AE683BF089587B3886087BB789480E849
:100090000E943E002FE382E49FE021508040904088
:1000A000E1F700C0000080E40E943E00FFCFF8941A
:0200B000FFCF80
:00000001FF
