:100000000C942A000C9434000C9434000C943400AA
:100010000C9434000C9434000C9434000C94340090
:100020000C9434000C9434000C9434000C94340080
:100030000C9434000C9434000C9434000C94340070
:100040000C9434000C9434000C9434000C94340060
:100050000C94340011241FBECFE5D8E0DEBFCDBF25
:100060000E943B000C9463000C94000012BE8CBFF5
:100070008AE683BF089587B3886087BB80E40E94C7
:1000800036002FE382E49FE0215080409040E1F76A
:1000900000C0000080E80E9436002FE382E49FE069
:1000A000215080409040E1F700C000008AEF0E949C
:1000B00036002FE382E49FE0215080409040E1F73A
:0A00C00000C00000DBCFF894FFCF72
:00000001FF
